{
	"address": "0xD3BC27D3020a4683472d5C16a14440277F544c63",
	"abi": [
		{
			"inputs": [
				{
					"internalType": "address",
					"name": "_token",
					"type": "address"
				},
				{
					"internalType": "uint256",
					"name": "_playFee",
					"type": "uint256"
				}
			],
			"stateMutability": "nonpayable",
			"type": "constructor"
		},
		{
			"anonymous": false,
			"inputs": [
				{
					"indexed": false,
					"internalType": "uint8",
					"name": "luckyNumber",
					"type": "uint8"
				},
				{
					"indexed": false,
					"internalType": "address[]",
					"name": "winner",
					"type": "address[]"
				},
				{
					"indexed": false,
					"internalType": "uint256",
					"name": "totalAmount",
					"type": "uint256"
				}
			],
			"name": "Finalized",
			"type": "event"
		},
		{
			"anonymous": false,
			"inputs": [
				{
					"indexed": false,
					"internalType": "address",
					"name": "user",
					"type": "address"
				},
				{
					"indexed": false,
					"internalType": "uint8",
					"name": "betNumber",
					"type": "uint8"
				}
			],
			"name": "Joined",
			"type": "event"
		},
		{
			"anonymous": false,
			"inputs": [
				{
					"indexed": true,
					"internalType": "address",
					"name": "previousOwner",
					"type": "address"
				},
				{
					"indexed": true,
					"internalType": "address",
					"name": "newOwner",
					"type": "address"
				}
			],
			"name": "OwnershipTransferred",
			"type": "event"
		},
		{
			"anonymous": false,
			"inputs": [
				{
					"indexed": false,
					"internalType": "address",
					"name": "account",
					"type": "address"
				}
			],
			"name": "Paused",
			"type": "event"
		},
		{
			"anonymous": false,
			"inputs": [
				{
					"indexed": false,
					"internalType": "address",
					"name": "account",
					"type": "address"
				}
			],
			"name": "Unpaused",
			"type": "event"
		},
		{
			"inputs": [
				{
					"internalType": "address",
					"name": "_player",
					"type": "address"
				}
			],
			"name": "betNumberOfPlayer",
			"outputs": [
				{
					"internalType": "uint8",
					"name": "_betNumber",
					"type": "uint8"
				}
			],
			"stateMutability": "view",
			"type": "function"
		},
		{
			"inputs": [],
			"name": "gameDetail",
			"outputs": [
				{
					"internalType": "address",
					"name": "_token",
					"type": "address"
				},
				{
					"internalType": "uint256",
					"name": "_playFee",
					"type": "uint256"
				},
				{
					"internalType": "address[]",
					"name": "_players",
					"type": "address[]"
				},
				{
					"internalType": "bool",
					"name": "_isEnded",
					"type": "bool"
				}
			],
			"stateMutability": "view",
			"type": "function"
		},
		{
			"inputs": [],
			"name": "gameResult",
			"outputs": [
				{
					"internalType": "uint8",
					"name": "_luckyNumber",
					"type": "uint8"
				},
				{
					"internalType": "address[]",
					"name": "_winners",
					"type": "address[]"
				}
			],
			"stateMutability": "view",
			"type": "function"
		},
		{
			"inputs": [
				{
					"internalType": "uint8",
					"name": "_betNumber",
					"type": "uint8"
				}
			],
			"name": "joinGame",
			"outputs": [],
			"stateMutability": "payable",
			"type": "function"
		},
		{
			"inputs": [],
			"name": "owner",
			"outputs": [
				{
					"internalType": "address",
					"name": "",
					"type": "address"
				}
			],
			"stateMutability": "view",
			"type": "function"
		},
		{
			"inputs": [],
			"name": "pauseGame",
			"outputs": [],
			"stateMutability": "nonpayable",
			"type": "function"
		},
		{
			"inputs": [],
			"name": "paused",
			"outputs": [
				{
					"internalType": "bool",
					"name": "",
					"type": "bool"
				}
			],
			"stateMutability": "view",
			"type": "function"
		},
		{
			"inputs": [],
			"name": "pickWinnerAndAwarding",
			"outputs": [],
			"stateMutability": "nonpayable",
			"type": "function"
		},
		{
			"inputs": [],
			"name": "renounceOwnership",
			"outputs": [],
			"stateMutability": "nonpayable",
			"type": "function"
		},
		{
			"inputs": [
				{
					"internalType": "address",
					"name": "newOwner",
					"type": "address"
				}
			],
			"name": "transferOwnership",
			"outputs": [],
			"stateMutability": "nonpayable",
			"type": "function"
		},
		{
			"inputs": [],
			"name": "unPauseGame",
			"outputs": [],
			"stateMutability": "nonpayable",
			"type": "function"
		}
	],
	"transactionHash": "0x1898266238841b05de4bebb1a0dd04834bbc6b752f63d1c1dc307921dbdf9692",
	"args": [
		"0x34183b75A30fFA12ee5c0d97F951F6e7F468Cd22",
		"10000000000000000000"
	],
	"numDeployments": 4,
	"solcInputHash": "7bce9a817135565b543a37b105d8c805",
	"bytecode": "0x60806040523480156200001157600080fd5b506040516200248838038062002488833981810160405281019062000037919062000237565b620000576200004b620000c660201b60201c565b620000ce60201b60201c565b60008060146101000a81548160ff021916908315150217905550816001800160006101000a81548173ffffffffffffffffffffffffffffffffffffffff021916908373ffffffffffffffffffffffffffffffffffffffff1602179055508060016000018190555050506200027e565b600033905090565b60008060009054906101000a900473ffffffffffffffffffffffffffffffffffffffff169050816000806101000a81548173ffffffffffffffffffffffffffffffffffffffff021916908373ffffffffffffffffffffffffffffffffffffffff1602179055508173ffffffffffffffffffffffffffffffffffffffff168173ffffffffffffffffffffffffffffffffffffffff167f8be0079c531659141344cd1fd0a4f28419497f9722a3daafe3b4186f6b6457e060405160405180910390a35050565b600080fd5b600073ffffffffffffffffffffffffffffffffffffffff82169050919050565b6000620001c48262000197565b9050919050565b620001d681620001b7565b8114620001e257600080fd5b50565b600081519050620001f681620001cb565b92915050565b6000819050919050565b6200021181620001fc565b81146200021d57600080fd5b50565b600081519050620002318162000206565b92915050565b6000806040838503121562000251576200025062000192565b5b60006200026185828601620001e5565b9250506020620002748582860162000220565b9150509250929050565b6121fa806200028e6000396000f3fe60806040526004361061009c5760003560e01c80637152f800116100645780637152f800146101655780638da5cb5b14610191578063d0ae92fb146101bc578063da7c18ce146101d8578063f2fde38b146101ef578063f42b1ae0146102185761009c565b806327ce99c4146100a1578063499831f2146100cf5780634f33549f146100e65780635c975abb14610123578063715018a61461014e575b600080fd5b3480156100ad57600080fd5b506100b661022f565b6040516100c69493929190611645565b60405180910390f35b3480156100db57600080fd5b506100e4610366565b005b3480156100f257600080fd5b5061010d600480360381019061010891906116c2565b610378565b60405161011a919061170b565b60405180910390f35b34801561012f57600080fd5b50610138610427565b6040516101459190611726565b60405180910390f35b34801561015a57600080fd5b5061016361043d565b005b34801561017157600080fd5b5061017a610451565b604051610188929190611741565b60405180910390f35b34801561019d57600080fd5b506101a661054b565b6040516101b39190611771565b60405180910390f35b6101d660048036038101906101d191906117b8565b610574565b005b3480156101e457600080fd5b506101ed6107b2565b005b3480156101fb57600080fd5b50610216600480360381019061021191906116c2565b610b70565b005b34801561022457600080fd5b5061022d610bf3565b005b600080606060006001800160009054906101000a900473ffffffffffffffffffffffffffffffffffffffff16935060016000015492506102726001600301610c05565b67ffffffffffffffff81111561028b5761028a6117e5565b5b6040519080825280602002602001820160405280156102b95781602001602082028036833780820191505090505b50915060005b6102cc6001600301610c05565b81101561034a576102ea816001600301610c1a90919063ffffffff16565b8382815181106102fd576102fc611814565b5b602002602001019073ffffffffffffffffffffffffffffffffffffffff16908173ffffffffffffffffffffffffffffffffffffffff1681525050808061034290611872565b9150506102bf565b50600160070160009054906101000a900460ff16905090919293565b61036e610c34565b610376610cb2565b565b6000610391826001600301610d1590919063ffffffff16565b6103d0576040517f08c379a00000000000000000000000000000000000000000000000000000000081526004016103c790611917565b60405180910390fd5b600160060160008373ffffffffffffffffffffffffffffffffffffffff1673ffffffffffffffffffffffffffffffffffffffff16815260200190815260200160002060009054906101000a900460ff169050919050565b60008060149054906101000a900460ff16905090565b610445610c34565b61044f6000610d45565b565b60006060600160070160009054906101000a900460ff166104a7576040517f08c379a000000000000000000000000000000000000000000000000000000000815260040161049e90611983565b60405180910390fd5b6001800160149054906101000a900460ff169150600160020180548060200260200160405190810160405280929190818152602001828054801561054057602002820191906000526020600020905b8160009054906101000a900473ffffffffffffffffffffffffffffffffffffffff1673ffffffffffffffffffffffffffffffffffffffff16815260200190600101908083116104f6575b505050505090509091565b60008060009054906101000a900473ffffffffffffffffffffffffffffffffffffffff16905090565b600160070160009054906101000a900460ff16156105c7576040517f08c379a00000000000000000000000000000000000000000000000000000000081526004016105be906119ef565b60405180910390fd5b6105cf610e09565b6105d881610e53565b610617576040517f08c379a000000000000000000000000000000000000000000000000000000000815260040161060e90611a5b565b60405180910390fd5b600073ffffffffffffffffffffffffffffffffffffffff166001800160009054906101000a900473ffffffffffffffffffffffffffffffffffffffff1673ffffffffffffffffffffffffffffffffffffffff16146106a9576106a46001800160009054906101000a900473ffffffffffffffffffffffffffffffffffffffff163330600160000154610fec565b6106d4565b6000600160000154346106bc9190611a7b565b905060008111156106d2576106d13382611125565b5b505b6106eb3360016003016111d690919063ffffffff16565b5061071a33600160050160008460ff1660ff1681526020019081526020016000206111d690919063ffffffff16565b5080600160060160003373ffffffffffffffffffffffffffffffffffffffff1673ffffffffffffffffffffffffffffffffffffffff16815260200190815260200160002060006101000a81548160ff021916908360ff1602179055507f040850c6a6d12756ea634bb172e124899591cb8365c95e3188dd0cf5682dad3d33826040516107a7929190611aaf565b60405180910390a150565b600160070160009054906101000a900460ff1615610805576040517f08c379a00000000000000000000000000000000000000000000000000000000081526004016107fc906119ef565b60405180910390fd5b61080d610c34565b600060644261081c9190611b07565b90506000610844600160050160008460ff1660ff168152602001908152602001600020610c05565b905060008073ffffffffffffffffffffffffffffffffffffffff166001800160009054906101000a900473ffffffffffffffffffffffffffffffffffffffff1673ffffffffffffffffffffffffffffffffffffffff1614610942576001800160009054906101000a900473ffffffffffffffffffffffffffffffffffffffff1673ffffffffffffffffffffffffffffffffffffffff166370a08231306040518263ffffffff1660e01b81526004016108fc9190611771565b602060405180830381865afa158015610919573d6000803e3d6000fd5b505050506040513d601f19601f8201168201806040525081019061093d9190611b64565b610944565b475b905060008203610989576109846001800160009054906101000a900473ffffffffffffffffffffffffffffffffffffffff1661097e61054b565b83611206565b610ae1565b60006064600a8361099a9190611b91565b6109a49190611bd3565b905060008382846109b59190611a7b565b6109bf9190611bd3565b90506109f76001800160009054906101000a900473ffffffffffffffffffffffffffffffffffffffff166109f161054b565b84611206565b60005b84811015610add576000610a3282600160050160008a60ff1660ff168152602001908152602001600020610c1a90919063ffffffff16565b90506001600201819080600181540180825580915050600190039060005260206000200160009091909190916101000a81548173ffffffffffffffffffffffffffffffffffffffff021916908373ffffffffffffffffffffffffffffffffffffffff160217905550610ac96001800160009054906101000a900473ffffffffffffffffffffffffffffffffffffffff168285611206565b508080610ad590611872565b9150506109fa565b5050505b826001800160146101000a81548160ff021916908360ff16021790555060018060070160006101000a81548160ff0219169083151502179055507f5269a6e903ca844b1f95c6eaba0055e5722ff9d41e96999ea1d5c10861abbfc66001800160149054906101000a900460ff16600160020183604051610b6393929190611cf0565b60405180910390a1505050565b610b78610c34565b600073ffffffffffffffffffffffffffffffffffffffff168173ffffffffffffffffffffffffffffffffffffffff1603610be7576040517f08c379a0000000000000000000000000000000000000000000000000000000008152600401610bde90611da0565b60405180910390fd5b610bf081610d45565b50565b610bfb610c34565b610c0361125a565b565b6000610c13826000016112bc565b9050919050565b6000610c2983600001836112cd565b60001c905092915050565b610c3c6112f8565b73ffffffffffffffffffffffffffffffffffffffff16610c5a61054b565b73ffffffffffffffffffffffffffffffffffffffff1614610cb0576040517f08c379a0000000000000000000000000000000000000000000000000000000008152600401610ca790611e0c565b60405180910390fd5b565b610cba610e09565b6001600060146101000a81548160ff0219169083151502179055507f62e78cea01bee320cd4e420270b5ea74000d11b0c9f74754ebdbfc544b05a258610cfe6112f8565b604051610d0b9190611771565b60405180910390a1565b6000610d3d836000018373ffffffffffffffffffffffffffffffffffffffff1660001b611300565b905092915050565b60008060009054906101000a900473ffffffffffffffffffffffffffffffffffffffff169050816000806101000a81548173ffffffffffffffffffffffffffffffffffffffff021916908373ffffffffffffffffffffffffffffffffffffffff1602179055508173ffffffffffffffffffffffffffffffffffffffff168173ffffffffffffffffffffffffffffffffffffffff167f8be0079c531659141344cd1fd0a4f28419497f9722a3daafe3b4186f6b6457e060405160405180910390a35050565b610e11610427565b15610e51576040517f08c379a0000000000000000000000000000000000000000000000000000000008152600401610e4890611e78565b60405180910390fd5b565b600080600073ffffffffffffffffffffffffffffffffffffffff166001800160009054906101000a900473ffffffffffffffffffffffffffffffffffffffff1673ffffffffffffffffffffffffffffffffffffffff1614610f51576001800160009054906101000a900473ffffffffffffffffffffffffffffffffffffffff1673ffffffffffffffffffffffffffffffffffffffff166370a08231336040518263ffffffff1660e01b8152600401610f0b9190611771565b602060405180830381865afa158015610f28573d6000803e3d6000fd5b505050506040513d601f19601f82011682018060405250810190610f4c9190611b64565b610f53565b345b90506064610f646001600301610c05565b108015610f74575060648360ff16105b8015610f945750610f92336001600301610d1590919063ffffffff16565b155b8015610fd35750610fa361054b565b73ffffffffffffffffffffffffffffffffffffffff163373ffffffffffffffffffffffffffffffffffffffff1614155b8015610fe457506001600001548110155b915050919050565b6000808573ffffffffffffffffffffffffffffffffffffffff166323b872dd86868660405160240161102093929190611e98565b6040516020818303038152906040529060e01b6020820180517bffffffffffffffffffffffffffffffffffffffffffffffffffffffff838183161783525050505060405161106e9190611f40565b6000604051808303816000865af19150503d80600081146110ab576040519150601f19603f3d011682016040523d82523d6000602084013e6110b0565b606091505b50915091508180156110de57506000815114806110dd5750808060200190518101906110dc9190611f83565b5b5b61111d576040517f08c379a000000000000000000000000000000000000000000000000000000000815260040161111490611ffc565b60405180910390fd5b505050505050565b60008273ffffffffffffffffffffffffffffffffffffffff168260405161114b90612042565b60006040518083038185875af1925050503d8060008114611188576040519150601f19603f3d011682016040523d82523d6000602084013e61118d565b606091505b50509050806111d1576040517f08c379a00000000000000000000000000000000000000000000000000000000081526004016111c8906120a3565b60405180910390fd5b505050565b60006111fe836000018373ffffffffffffffffffffffffffffffffffffffff1660001b611323565b905092915050565b600073ffffffffffffffffffffffffffffffffffffffff168373ffffffffffffffffffffffffffffffffffffffff1603611249576112448282611125565b611255565b611254838383611393565b5b505050565b6112626114c9565b60008060146101000a81548160ff0219169083151502179055507f5db9ee0a495bf2e6ff9c91a7834c1ba4fdd244a5e8aa4e537bd38aeae4b073aa6112a56112f8565b6040516112b29190611771565b60405180910390a1565b600081600001805490509050919050565b60008260000182815481106112e5576112e4611814565b5b9060005260206000200154905092915050565b600033905090565b600080836001016000848152602001908152602001600020541415905092915050565b600061132f8383611300565b61138857826000018290806001815401808255809150506001900390600052602060002001600090919091909150558260000180549050836001016000848152602001908152602001600020819055506001905061138d565b600090505b92915050565b6000808473ffffffffffffffffffffffffffffffffffffffff1663a9059cbb85856040516024016113c59291906120c3565b6040516020818303038152906040529060e01b6020820180517bffffffffffffffffffffffffffffffffffffffffffffffffffffffff83818316178352505050506040516114139190611f40565b6000604051808303816000865af19150503d8060008114611450576040519150601f19603f3d011682016040523d82523d6000602084013e611455565b606091505b509150915081801561148357506000815114806114825750808060200190518101906114819190611f83565b5b5b6114c2576040517f08c379a00000000000000000000000000000000000000000000000000000000081526004016114b990612138565b60405180910390fd5b5050505050565b6114d1610427565b611510576040517f08c379a0000000000000000000000000000000000000000000000000000000008152600401611507906121a4565b60405180910390fd5b565b600073ffffffffffffffffffffffffffffffffffffffff82169050919050565b600061153d82611512565b9050919050565b61154d81611532565b82525050565b6000819050919050565b61156681611553565b82525050565b600081519050919050565b600082825260208201905092915050565b6000819050602082019050919050565b6115a181611532565b82525050565b60006115b38383611598565b60208301905092915050565b6000602082019050919050565b60006115d78261156c565b6115e18185611577565b93506115ec83611588565b8060005b8381101561161d57815161160488826115a7565b975061160f836115bf565b9250506001810190506115f0565b5085935050505092915050565b60008115159050919050565b61163f8161162a565b82525050565b600060808201905061165a6000830187611544565b611667602083018661155d565b818103604083015261167981856115cc565b90506116886060830184611636565b95945050505050565b600080fd5b61169f81611532565b81146116aa57600080fd5b50565b6000813590506116bc81611696565b92915050565b6000602082840312156116d8576116d7611691565b5b60006116e6848285016116ad565b91505092915050565b600060ff82169050919050565b611705816116ef565b82525050565b600060208201905061172060008301846116fc565b92915050565b600060208201905061173b6000830184611636565b92915050565b600060408201905061175660008301856116fc565b818103602083015261176881846115cc565b90509392505050565b60006020820190506117866000830184611544565b92915050565b611795816116ef565b81146117a057600080fd5b50565b6000813590506117b28161178c565b92915050565b6000602082840312156117ce576117cd611691565b5b60006117dc848285016117a3565b91505092915050565b7f4e487b7100000000000000000000000000000000000000000000000000000000600052604160045260246000fd5b7f4e487b7100000000000000000000000000000000000000000000000000000000600052603260045260246000fd5b7f4e487b7100000000000000000000000000000000000000000000000000000000600052601160045260246000fd5b600061187d82611553565b91507fffffffffffffffffffffffffffffffffffffffffffffffffffffffffffffffff82036118af576118ae611843565b5b600182019050919050565b600082825260208201905092915050565b7f4c6f74746572793a20706c617965722068617665206e6f74206a6f696e656400600082015250565b6000611901601f836118ba565b915061190c826118cb565b602082019050919050565b60006020820190508181036000830152611930816118f4565b9050919050565b7f4c6f74746572793a2067616d65206973206e6f74206f76657200000000000000600082015250565b600061196d6019836118ba565b915061197882611937565b602082019050919050565b6000602082019050818103600083015261199c81611960565b9050919050565b7f4c6f74746572793a2067616d6520656e64656400000000000000000000000000600082015250565b60006119d96013836118ba565b91506119e4826119a3565b602082019050919050565b60006020820190508181036000830152611a08816119cc565b9050919050565b7f4c6f74746572793a2063616e206e6f74206a6f696e0000000000000000000000600082015250565b6000611a456015836118ba565b9150611a5082611a0f565b602082019050919050565b60006020820190508181036000830152611a7481611a38565b9050919050565b6000611a8682611553565b9150611a9183611553565b9250828203905081811115611aa957611aa8611843565b5b92915050565b6000604082019050611ac46000830185611544565b611ad160208301846116fc565b9392505050565b7f4e487b7100000000000000000000000000000000000000000000000000000000600052601260045260246000fd5b6000611b1282611553565b9150611b1d83611553565b925082611b2d57611b2c611ad8565b5b828206905092915050565b611b4181611553565b8114611b4c57600080fd5b50565b600081519050611b5e81611b38565b92915050565b600060208284031215611b7a57611b79611691565b5b6000611b8884828501611b4f565b91505092915050565b6000611b9c82611553565b9150611ba783611553565b9250828202611bb581611553565b91508282048414831517611bcc57611bcb611843565b5b5092915050565b6000611bde82611553565b9150611be983611553565b925082611bf957611bf8611ad8565b5b828204905092915050565b600081549050919050565b60008190508160005260206000209050919050565b60008160001c9050919050565b600073ffffffffffffffffffffffffffffffffffffffff82169050919050565b6000611c64611c5f83611c24565b611c31565b9050919050565b6000611c778254611c51565b9050919050565b6000600182019050919050565b6000611c9682611c04565b611ca08185611577565b9350611cab83611c0f565b8060005b83811015611ce357611cc082611c6b565b611cca88826115a7565b9750611cd583611c7e565b925050600181019050611caf565b5085935050505092915050565b6000606082019050611d0560008301866116fc565b8181036020830152611d178185611c8b565b9050611d26604083018461155d565b949350505050565b7f4f776e61626c653a206e6577206f776e657220697320746865207a65726f206160008201527f6464726573730000000000000000000000000000000000000000000000000000602082015250565b6000611d8a6026836118ba565b9150611d9582611d2e565b604082019050919050565b60006020820190508181036000830152611db981611d7d565b9050919050565b7f4f776e61626c653a2063616c6c6572206973206e6f7420746865206f776e6572600082015250565b6000611df66020836118ba565b9150611e0182611dc0565b602082019050919050565b60006020820190508181036000830152611e2581611de9565b9050919050565b7f5061757361626c653a2070617573656400000000000000000000000000000000600082015250565b6000611e626010836118ba565b9150611e6d82611e2c565b602082019050919050565b60006020820190508181036000830152611e9181611e55565b9050919050565b6000606082019050611ead6000830186611544565b611eba6020830185611544565b611ec7604083018461155d565b949350505050565b600081519050919050565b600081905092915050565b60005b83811015611f03578082015181840152602081019050611ee8565b60008484015250505050565b6000611f1a82611ecf565b611f248185611eda565b9350611f34818560208601611ee5565b80840191505092915050565b6000611f4c8284611f0f565b915081905092915050565b611f608161162a565b8114611f6b57600080fd5b50565b600081519050611f7d81611f57565b92915050565b600060208284031215611f9957611f98611691565b5b6000611fa784828501611f6e565b91505092915050565b7f53543a207472616e736665722066726f6d206661696c65640000000000000000600082015250565b6000611fe66018836118ba565b9150611ff182611fb0565b602082019050919050565b6000602082019050818103600083015261201581611fd9565b9050919050565b50565b600061202c600083611eda565b91506120378261201c565b600082019050919050565b600061204d8261201f565b9150819050919050565b7f53543a20657468207472616e73666572206661696c6564000000000000000000600082015250565b600061208d6017836118ba565b915061209882612057565b602082019050919050565b600060208201905081810360008301526120bc81612080565b9050919050565b60006040820190506120d86000830185611544565b6120e5602083018461155d565b9392505050565b7f53543a207472616e73666572206661696c656400000000000000000000000000600082015250565b60006121226013836118ba565b915061212d826120ec565b602082019050919050565b6000602082019050818103600083015261215181612115565b9050919050565b7f5061757361626c653a206e6f7420706175736564000000000000000000000000600082015250565b600061218e6014836118ba565b915061219982612158565b602082019050919050565b600060208201905081810360008301526121bd81612181565b905091905056fea2646970667358221220fe453058a5b029a17ebac3001e721acf18bc89e3f821b0b7669422b9d28f46fd64736f6c63430008110033",
	"libraries": {},
	"devdoc": {
		"kind": "dev",
		"methods": {
			"owner()": {
				"details": "Returns the address of the current owner."
			},
			"paused()": {
				"details": "Returns true if the contract is paused, and false otherwise."
			},
			"renounceOwnership()": {
				"details": "Leaves the contract without owner. It will not be possible to call `onlyOwner` functions anymore. Can only be called by the current owner. NOTE: Renouncing ownership will leave the contract without an owner, thereby removing any functionality that is only available to the owner."
			},
			"transferOwnership(address)": {
				"details": "Transfers ownership of the contract to a new account (`newOwner`). Can only be called by the current owner."
			}
		},
		"version": 1
	},
	"userdoc": {
		"kind": "user",
		"methods": {},
		"version": 1
	},
	"storageLayout": {
		"storage": [
			{
				"astId": 7,
				"contract": "contracts/Lottery.sol:Lottery",
				"label": "_owner",
				"offset": 0,
				"slot": "0",
				"type": "t_address"
			},
			{
				"astId": 130,
				"contract": "contracts/Lottery.sol:Lottery",
				"label": "_paused",
				"offset": 20,
				"slot": "0",
				"type": "t_bool"
			},
			{
				"astId": 963,
				"contract": "contracts/Lottery.sol:Lottery",
				"label": "gameInfo",
				"offset": 0,
				"slot": "1",
				"type": "t_struct(GameInfo)960_storage"
			}
		],
		"types": {
			"t_address": {
				"encoding": "inplace",
				"label": "address",
				"numberOfBytes": "20"
			},
			"t_array(t_address)dyn_storage": {
				"base": "t_address",
				"encoding": "dynamic_array",
				"label": "address[]",
				"numberOfBytes": "32"
			},
			"t_array(t_bytes32)dyn_storage": {
				"base": "t_bytes32",
				"encoding": "dynamic_array",
				"label": "bytes32[]",
				"numberOfBytes": "32"
			},
			"t_bool": {
				"encoding": "inplace",
				"label": "bool",
				"numberOfBytes": "1"
			},
			"t_bytes32": {
				"encoding": "inplace",
				"label": "bytes32",
				"numberOfBytes": "32"
			},
			"t_mapping(t_address,t_uint8)": {
				"encoding": "mapping",
				"key": "t_address",
				"label": "mapping(address => uint8)",
				"numberOfBytes": "32",
				"value": "t_uint8"
			},
			"t_mapping(t_bytes32,t_uint256)": {
				"encoding": "mapping",
				"key": "t_bytes32",
				"label": "mapping(bytes32 => uint256)",
				"numberOfBytes": "32",
				"value": "t_uint256"
			},
			"t_mapping(t_uint8,t_struct(AddressSet)632_storage)": {
				"encoding": "mapping",
				"key": "t_uint8",
				"label": "mapping(uint8 => struct EnumerableSet.AddressSet)",
				"numberOfBytes": "32",
				"value": "t_struct(AddressSet)632_storage"
			},
			"t_struct(AddressSet)632_storage": {
				"encoding": "inplace",
				"label": "struct EnumerableSet.AddressSet",
				"members": [
					{
						"astId": 631,
						"contract": "contracts/Lottery.sol:Lottery",
						"label": "_inner",
						"offset": 0,
						"slot": "0",
						"type": "t_struct(Set)331_storage"
					}
				],
				"numberOfBytes": "64"
			},
			"t_struct(GameInfo)960_storage": {
				"encoding": "inplace",
				"label": "struct Lottery.GameInfo",
				"members": [
					{
						"astId": 938,
						"contract": "contracts/Lottery.sol:Lottery",
						"label": "playFee",
						"offset": 0,
						"slot": "0",
						"type": "t_uint256"
					},
					{
						"astId": 940,
						"contract": "contracts/Lottery.sol:Lottery",
						"label": "token",
						"offset": 0,
						"slot": "1",
						"type": "t_address"
					},
					{
						"astId": 942,
						"contract": "contracts/Lottery.sol:Lottery",
						"label": "luckyNumber",
						"offset": 20,
						"slot": "1",
						"type": "t_uint8"
					},
					{
						"astId": 945,
						"contract": "contracts/Lottery.sol:Lottery",
						"label": "winners",
						"offset": 0,
						"slot": "2",
						"type": "t_array(t_address)dyn_storage"
					},
					{
						"astId": 948,
						"contract": "contracts/Lottery.sol:Lottery",
						"label": "players",
						"offset": 0,
						"slot": "3",
						"type": "t_struct(AddressSet)632_storage"
					},
					{
						"astId": 953,
						"contract": "contracts/Lottery.sol:Lottery",
						"label": "betNumberToPlayers",
						"offset": 0,
						"slot": "5",
						"type": "t_mapping(t_uint8,t_struct(AddressSet)632_storage)"
					},
					{
						"astId": 957,
						"contract": "contracts/Lottery.sol:Lottery",
						"label": "playerToBetNumber",
						"offset": 0,
						"slot": "6",
						"type": "t_mapping(t_address,t_uint8)"
					},
					{
						"astId": 959,
						"contract": "contracts/Lottery.sol:Lottery",
						"label": "isEnded",
						"offset": 0,
						"slot": "7",
						"type": "t_bool"
					}
				],
				"numberOfBytes": "256"
			},
			"t_struct(Set)331_storage": {
				"encoding": "inplace",
				"label": "struct EnumerableSet.Set",
				"members": [
					{
						"astId": 326,
						"contract": "contracts/Lottery.sol:Lottery",
						"label": "_values",
						"offset": 0,
						"slot": "0",
						"type": "t_array(t_bytes32)dyn_storage"
					},
					{
						"astId": 330,
						"contract": "contracts/Lottery.sol:Lottery",
						"label": "_indexes",
						"offset": 0,
						"slot": "1",
						"type": "t_mapping(t_bytes32,t_uint256)"
					}
				],
				"numberOfBytes": "64"
			},
			"t_uint256": {
				"encoding": "inplace",
				"label": "uint256",
				"numberOfBytes": "32"
			},
			"t_uint8": {
				"encoding": "inplace",
				"label": "uint8",
				"numberOfBytes": "1"
			}
		}
	}
}